:020000040800F2
:10000000B0050020050100080F150008D1110008F7
:100010000D150008710100081D19000800000000FE
:1000200000000000000000000000000013150008A0
:1000300073010008000000001115000815150008E4
:100040001F0100081F0100081F0100081F01000810
:100050001F0100081F0100081F0100081F01000800
:100060001F0100081F0100081F0100081F010008F0
:100070001F0100081F0100081F0100081F010008E0
:100080001F0100081F0100081F0100081F010008D0
:100090001F0100081F0100081F0100081F010008C0
:1000A0001F0100081F0100081F0100081F010008B0
:1000B0001F0100081F0100081F0100081F010008A0
:1000C0001F0100081F0100081F0100081F01000890
:1000D0001F01000805190008111900081F01000878
:1000E0001F0100081F0100081F010008DFF810D0E1
:1000F00000F02CF8004800475D190008AFF30080BD
:10010000B00500200648804706480047FEE7FEE7A6
:10011000FEE7FEE7FEE7FEE7FEE7FEE7FEE7FEE7B7
:1001200077150008ED000008D2B201E000F8012BBD
:10013000491EFBD270470022F6E710B513460A4667
:1001400004461946FFF7F0FF204610BD064C074D48
:1001500006E0E06840F0010394E807009847103497
:10016000AC42F6D3FFF7C6FF9C190008BC19000883
:10017000FEE7704772B6FEE710B590F82110002434
:10018000022903D00421816301243DE001680A684B
:1001900022F00E020A6001680A6822F001020A6079
:1001A0001A4A0168914201D1012121E0174A143213
:1001B000914201D110211BE0144A2832914201D111
:1001C000891515E0114A3C32914201D189140FE0A2
:1001D0000E4A5032914202D14FF4803108E00B4A6E
:1001E0006432914202D14FF4801101E04FF08071EE
:1001F000064A083A5160012180F82110002180F858
:100200002010416B01B18847204610BD0800024014
:100210002DE9F84FDFF8B891002409F1040A0AF13A
:10022000040B23460F270BF1040EC9E00125A5405E
:100230002A40AA427DD1674ED1F804C0ACEB060833
:10024000B44532D014DCBCF1030F3AD009DCBCF168
:10025000000F2AD0BCF1010F1CD0BCF1020F31D12C
:100260001DE0BCF1110F17D0BCF1120F2AD119E01B
:10027000B8F5881F19D006DCB8F5803F15D0B8F561
:10028000801F1FD111E0B8F5001F0ED0B8F5041F74
:1002900018D10AE0CB6815E0CB681B1D12E0CB68D3
:1002A00008330FE0CB680C330CE08B682BB1012BCB
:1002B0004FF0080303D0456104E0042302E0056128
:1002C00000E00023FF2A01D8064601E000F1040601
:1002D0004FEA840501D9A5F12005D6F8008007FA78
:1002E00005FC28EA0C0803FA05F548EA0508C6F8F3
:1002F00000804D68ED0062D5374DAE6946F00106CD
:10030000AE61AD6924F0030605F001050095334D9B
:1003100006EB050CDCF80850A607360F07FA06F8BE
:1003200025EA0805DFF8B880404503D14FF0000802
:1003300017E044E0DFF8AC80404502D14FF00108FF
:100340000FE0DFF8A480404502D14FF0020808E03A
:10035000DFF89880404502D14FF0030801E04FF0EC
:10036000040808FA06F848EA0508CCF808804D6841
:10037000D9F80060ED034D4601D5164300E09643E1
:100380002E604D68DAF80060AD03554601D516437E
:1003900000E096432E604D68DBF80060ED025D469C
:1003A00001D5164300E096432E604D68DEF80060EC
:1003B000AD02754601D5164300E096432E60641CDD
:1003C0000D682A46E5407FF431AFBDE8F88F0000A4
:1003D0000004014000001110001002400000014024
:1003E00000080140000C01400010014000140140D1
:1003F0000AB1016170470904FBE700000148806809
:100400007047000000000020024881680278114413
:100410008160704700000020074810B5016841F076
:1004200010010160032000F075F8002000F006F8CC
:1004300000F024F8002010BD0020024070B50D4DE2
:1004400004464FF47A712878B1FBF0F00A49096844
:10045000B1FBF0F000F0ECFA48B9102C07D2002202
:100460002146501E00F036F800206C6070BD01205F
:1004700070BD0000000000200C0000200C4808B5F2
:10048000816941F001018161816901F001010091FF
:10049000C16941F08051C161C06900F08050009095
:1004A0000448416821F0E06141F00071416008BDFD
:1004B0000010024000000140002809DB00F01F028C
:1004C000012191404009800000F1E020C0F80011B6
:1004D00070470000F0B40E4B1B680C46C3F30223B8
:1004E000C3F10705042D00D90425191D072901D2E0
:1004F000002300E0DB1E012606FA05F1491E21401B
:1005000099409E40761E16403143F0BC01F007BA78
:100510000CED00E0064900F0070208684FF6FF0303
:10052000184040EA0220034A104308607047000068
:100530000CED00E00000FA052DE9F0470F4605003C
:1005400061D0434E306800F00700B84209D23068ED
:1005500020F0070038433060306800F00700B842F0
:1005600051D128683B4C810712D5400703D56068FC
:1005700040F4E06060602878000703D5606840F4CC
:10058000605060606068A96820F0F0000843606017
:100590002878C00728D06868012810D02168022870
:1005A00010D0890700292EDA616821F00301014388
:1005B0006160FFF723FF804641F288390DE0216832
:1005C0008903EFE78901EDE7FFF718FFA0EB0801CA
:1005D000494502D90320BDE8F0876068696800F0EA
:1005E0000C00B0EB810FEFD1306800F00700B8428B
:1005F0000BD9306820F0070038433060306800F0D5
:100600000700B84201D00120E5E72878400705D56A
:100610006068E96820F4E0600843606028780007BB
:1006200006D56068296920F4605040EAC100606026
:1006300000F038F86168084AC1F30311515CC84002
:100640000649086006480068FFF7F8FE0020C2E788
:100650000020024000100240821900080C00002017
:10066000040000200448054900684968044AC1F3B1
:100670000221515CC84070470C000020001002406D
:10068000921900080448054900684968044AC1F302
:10069000C221515CC84070470C000020001002408D
:1006A0009219000812A185B00FC98DE80F0014A09F
:1006B000144A006804905168134801F00C03042B9D
:1006C00010D0082B0ED1C1F38343C9031DF80300DA
:1006D0000AD5516804AAC1F34041515C0A4A50430B
:1006E000B0FBF1F005B0704708494843FAE7000055
:1006F00002030405060708090A0B0C0D0E0F101063
:10070000010200000010024000127A0000093D00C2
:100710002DE9F84F040070D02078C04DC00749D0B3
:100720006868C0F38100012807D06868C0F38100C1
:10073000022809D16868C00306D52868800339D526
:1007400060680028E7D035E06068B0F5803F0BD0E6
:1007500010B1B0F5A02F11D0286820F480302860A7
:10076000286820F4802002E0286840F48030286067
:10077000606890B1FFF742FE06460AE0286840F440
:1007800080202860F0E700BFFFF738FE801B642858
:1007900073D828688003F7D50CE0FFF72FFE0646D4
:1007A00005E000BFFFF72AFE801B6428F0D8286808
:1007B0008003F7D420789A4E80074FF001094FF05C
:1007C000000839D5686810F00C0F07D06868C0F3CE
:1007D0008100022809D16868C00306D42868800710
:1007E00014D52069012808D110E02069B0B1C6F8FD
:1007F0000090FFF703FE074605E00AE1FFF7FEFD64
:10080000C01B0228C4D828688007F7D5286861690A
:1008100020F0F80040EAC10028600DE0C6F8008032
:10082000FFF7ECFD074604E0FFF7E8FDC01B0228D8
:1008300023D828688007F7D4207800072CD579487A
:10084000A169D9B1C0F80090FFF7D8FD074604E0D0
:10085000FFF7D4FDC01B02280FD8686A8007F7D5C0
:1008600071484FF4FA510068B0FBF1F0009000BFFE
:100870000098411E0091FAD20EE080E0C0F800809E
:10088000FFF7BCFD074604E0FFF7B8FDC01B0228D8
:1008900075D8686A8007F7D42078400760D5E86982
:1008A0000027C00008D4E86940F08050E861E8699A
:1008B000012700F0805000905C480168C90513D4FE
:1008C0000168834641F480710160FFF797FD82461D
:1008D00006E000BFFFF792FDA0EB0A0064284ED8A7
:1008E000DBF80000C005F5D5E06801280AD008B1A2
:1008F000052813D0286A20F001002862286A20F019
:10090000040002E0286A40F001002862E06841F239
:10091000883B98B1FFF772FD82460BE0286A40F0F1
:1009200004002862EEE700BFFFF768FDA0EB0A01B4
:1009300059455AD8286A8007F6D50CE0FFF75EFDC6
:10094000824605E0FFF75AFDA0EB0A0159454CD855
:10095000286A8007F6D41FB1E86920F08050E8616A
:10096000E06988B36968C1F38101022944D0022893
:10097000C6F8608004D0FFF741FD044638E034E05B
:10098000FFF73CFD074604E0FFF738FDC01B0228D7
:100990002BD828688001F7D4206AB0F5803F05D1B4
:1009A0006868A16820F4003008436860D4E9080151
:1009B0000843696821F4741108436860C6F86090C0
:1009C000FFF71CFD044606E025E000BFFFF716FD1B
:1009D000001B022809D828688001F7D51BE000BF5A
:1009E000FFF70CFD001B022802D90320BDE8F88F99
:1009F00028688001F4D40EE00128F7D06868226AE4
:100A000000F48031914204D1616A00F47010884290
:100A100001D00120EAE70020E8E7000000100240D2
:100A200000004242800442420C000020007000405E
:100A300010B5401EB0F1807F01D3012010BD4FF0F2
:100A4000E02460610F21601700F069FF0020A061C1
:100A500007202061002010BD10B590F83C20012A2D
:100A600022D0012280F83C20CA688C6822F44072AF
:100A700022434C6822F4806222430C6822F4006214
:100A800022430C6922F4805222434C6922F4005222
:100A90002243C969002322F480420A4301684A6460
:100AA00080F83C30002010BD022010BD70B590F8D9
:100AB0003C20012A26D0012480F83C40022280F804
:100AC0003D2003685A689D6822F070060A68324328
:100AD0005A600D4B02689A4208D0B2F1804F05D09F
:100AE0000A4B9A4202D00A4B9A4204D1496825F037
:100AF00080031943916080F83D40002180F83C104C
:100B0000084670BD022070BD002C0140000400406A
:100B10000008004010B5040003D094F83D0010B167
:100B200007E0012010BD002084F83C00204600F0C2
:100B30001FF8022084F83D00211D206800F01CFDF4
:100B4000012084F8460084F83E0084F83F0084F8D1
:100B5000400084F8410084F8420084F8430084F89F
:100B6000440084F8450084F83D00002010BD0000DA
:100B700008B50C4A01680C48914207D1816941F4DB
:100B800000618161806900F4006009E0074A9142D8
:100B900007D1C16941F00401C161C06900F00400DE
:100BA000009008BD002C01400010024000080040E9
:100BB00070B5044690F83C00012817D0012584F850
:100BC0003C50022084F83D002068826822F07702C1
:100BD00022F47F4282600868502830D00DDC202843
:100BE0004DD005DC98B310283BD148E0022070BD01
:100BF000302844D0402834D139E0602828D07028EB
:100C000006D0B0F5805F2CD0B0F5005F29D10AE0A6
:100C1000CB68D1E90121206800F0E4FC20688168FC
:100C200041F0770109E0CB68D1E90121206800F0AB
:100C3000D9FC2068816841F48041816011E0CA6874
:100C40004968206800F082FD5021206807E016E026
:100C5000CA684968206800F08AFD6021206800F0B9
:100C6000CBFC84F83D50002084F83C0070BDCA687D
:100C70004968206800F06AFD40212068EFE722689B
:100C800001461046EBE72DE9F0410D46040003D084
:100C900094F83D0018B108E00120BDE8F081002083
:100CA00084F83C00204600F041F8022084F83D0022
:100CB0002068816844F2070291438160211D206809
:100CC00000F05AFC226890689169166A2B68AF6937
:100CD000034340F20330814341EA0721A868EF69EA
:100CE00008434FF6FC418843E96840EA0720014386
:100CF00028692F6A000140EA0730084369686D6976
:100D000026F0220646EA0515294393602268906181
:100D100054F8460B0162012004F81F09E0752076A3
:100D2000E0762077A0750020B7E7000000B585B019
:100D3000002100910191029103910268184919481C
:100D4000B2F1804F19D0184B9A4214D1CA6942F0BF
:100D50000202CA61CA6902F0020204928A6942F080
:100D600004028A61896901F004010491C0210091A3
:100D70006946FFF74DFA05B000BDCA6942F00102AD
:100D8000CA61CA6902F0010204928A6942F004024F
:100D90008A61896901F0040104910321E7E70000F9
:100DA00000100240000801400004004000B585B07A
:100DB0000021009101910291039100680B49884242
:100DC00012D10B48816941F0040181618069694653
:100DD00000F0040004904FF4407000900220019055
:100DE00003900448FFF714FA05B000BD002C014041
:100DF000001002400008014070B5044690F83C0025
:100E00000D4601280AD0012084F83C0042B1042A92
:100E100018D0082A2AD00C2A4DD139E0022070BD02
:100E2000206800F0F1FB2068816941F008018161D0
:100E30002068816921F004018161206881692A6943
:100E4000114311E0206800F007FC2068816941F43B
:100E5000006181612068816921F48061816120687D
:100E600081692A6941EA0221816124E0206800F059
:100E70001FFC2068C16941F00801C1612068C16997
:100E800021F00401C1612068C1692A69114311E0A0
:100E9000206800F039FC2068C16941F40061C1613B
:100EA0002068C16921F48061C1612068C1692A6933
:100EB00041EA0221C161002084F83C0070BD10B5F8
:100EC000040003D094F83D0010B107E0012010BDEC
:100ED000002084F83C00204600F01EF8022084F830
:100EE0003D00211D206800F047FB012084F84600EA
:100EF00084F83E0084F83F0084F8400084F8410004
:100F000084F8420084F8430084F8440084F84500E3
:100F100084F83D00002010BD7047704770B502682E
:100F200004461068D168536910F00F0F52D003F0D7
:100F3000010501F490762E435FD0C20705D0CA05A3
:100F400003D5E26B42F00102E263420705D5DA07FE
:100F500003D0E26B42F00202E263820705D5DA07B2
:100F600003D0E26B42F00402E263020707D501F00E
:100F700020022A4303D0E26B42F00802E263E26BF4
:100F8000002A33D0800604D5880602D5204600F01A
:100F900016FC20684069E16BC0F38010090700D49B
:100FA00028B3204600F0FDFB2068416949061AD5A8
:100FB000416921F040014161606BA0B12D4941635D
:100FC000606BFFF7D9F8002810D0606B416BBDE86B
:100FD00070400847830610D58B060ED52046BDE825
:100FE000704000F0ECBB2046FFF797FF70BD204635
:100FF000FFF793FF0020E06370BD03062BD50B06BF
:1010000029D594F839002128F6D1A068B0F5805F81
:1010100001D12069B0B1206A411C216221680078A9
:101020004860E08C401E0004000CE084E4D120689D
:10103000C16821F08001C1602068C16841F04001B1
:10104000C16070BD206A0088C0F308005060206A4B
:10105000801C2062E5E74006F3D54806F1D5D1684B
:10106000204621F04001D160202184F8391000F0A1
:10107000AEF870BD9317000870B5040004D094F862
:101080003900002510B106E0012070BD84F8385009
:10109000204600F023F8242084F839002068C16835
:1010A00021F40051C160204600F0D0FB20680169A6
:1010B00021F4904101612068416921F02A014161D8
:1010C0002068C16841F40051C160E563202084F8C4
:1010D000390084F83A00002070BD000030B585B0BA
:1010E00000240094019402940394324D0368324822
:1010F00002210322AB422ED1836943F480438361F2
:10110000836903F480430493836943F00803836194
:1011100080692A4D00F0080004904020CDE90001CC
:10112000039269462846FFF773F88020CDE9000452
:10113000694628460294FFF76BF82148416841F060
:10114000E06141F004014160002211462520FFF7D3
:10115000C1F9252029E01B4DAB4228D1C36943F4D6
:101160000033C361C36903F400330493836943F01C
:10117000040383618069144D00F00400049004208E
:10118000CDE90001039269462846FFF741F808209F
:10119000CDE90004694628460294FFF739F8002299
:1011A00011462620FFF796F92620FFF785F905B0AE
:1011B00030BD00000038014000100240000C01402A
:1011C00000000140004400400008014070477047A3
:1011D000FEE700002DE9F04385B000242548009487
:1011E000019402940394816941F010018161816945
:1011F00001F010010491816941F020018161816950
:1012000001F020010491816941F00401816181694B
:1012100001F004010491816941F008018161806954
:10122000DFF8548000F008004FF4005504900022CD
:1012300029464046FFF7DCF8DFF840904FF41C47A2
:10124000002239464846FFF7D3F8009502260125CB
:101250000396CDE9015469464046FEF7D9FF009751
:101260000396CDE9015469464846FEF7D1FF05B023
:10127000BDE8F0830010024000100140000801406A
:1012800010B596B000240F941094119412941394F6
:101290001C2168461494FEF74EFF202107A8FEF794
:1012A0004AFF2C482A4901600121C0E9011441F696
:1012B0001F41C0E9031444618461FFF72BFC08B1AE
:1012C000FEF758FF4FF480500F900FA92148FFF709
:1012D0006FFC08B1FEF74EFF1E48FFF7F0FD08B1A6
:1012E000FEF748FF139413A91A481494FFF7DEFB86
:1012F00008B1FEF73FFF6020CDE90004029403949B
:10130000049405940022694612480694FFF774FD80
:1013100008B1FEF72FFF042269460E48FFF76CFD67
:1013200008B1FEF727FF0794089409944FF4005082
:101330000A94CDE90B4007A906480E94FFF78CFBF1
:1013400008B1FEF717FF0348FFF730FD16B010BDD8
:10135000002C01401000002010B58CB024216846FC
:10136000FEF7E9FE0024164809944FF080410A94E4
:10137000C0E900144FF6FF71C0E9024104618461C5
:101380000320CDE900040120CDE9020408210491E5
:10139000CDE90540CDE9074169460948FFF773FCEF
:1013A00008B1FEF7E7FE099409A905480A94FFF77A
:1013B0007DFB002801D0FEF7DDFE0CB010BD000063
:1013C0005800002010B58CB024216846FEF7B3FE0B
:1013D00000241648099414490A94C0E900144FF6F1
:1013E000FF71C0E90241046184610320CDE900047A
:1013F0000120CDE9020408210491CDE90540CDE9A1
:10140000074169460948FFF73EFC08B1FEF7B2FE06
:10141000099409A905480A94FFF748FB002801D060
:10142000FEF7A8FE0CB010BD00040040A000002094
:1014300010B586B0002418480094019402940394D7
:10144000049414490594016040F2CF21C0E90114CD
:1014500040F2CF71C0E9031480218161FFF75AFB8C
:1014600008B1FEF787FE4FF48050009069460A48A5
:10147000FFF79EFB08B1FEF77DFE049404A9064821
:101480000594FFF713FB002801D0FEF773FE06B0AA
:1014900010BD000000080040E80000200C4810B516
:1014A0000A4901604FF4E1314160002181600C2262
:1014B000C160C0E904128161C161FFF7DDFD002850
:1014C00003D0BDE81040FEF755BE10BD0038014006
:1014D000300100200C4810B50A4901604FF4E13199
:1014E0004160002181600C22C160C0E90412816169
:1014F000C161FFF7C1FD002803D0BDE81040FEF731
:1015000039BE10BD0044004070010020FEE7FEE738
:1015100070477047FEF778BF30B58FB02821684616
:10152000FEF709FE14210AA8FEF705FE01210804B2
:10153000CDE900100024029402250491CDE9075062
:101540004FF4E01009906846FFF7E2F808B172B670
:10155000FEE70F20CDE90A054FF48060CDE90C408D
:1015600002210AA80E94FEF7E7FF002801D072B608
:10157000FEE70FB030BD7047F0B50268164B174C50
:10158000174D4FF08047984205D0B84203D0A04293
:1015900001D0A84203D122F070064A683243984233
:1015A00005D0B84203D0A04201D0A84203D122F412
:1015B0004074CA6822434C6922F0800222430260D0
:1015C0008A68C2620A688262984201D1096901632D
:1015D00001214161F0BD0000002C014000040040E9
:1015E0000008004010B5846842EA032224F47F44D6
:1015F0000A432243826010BD826822F070020A43CF
:1016000042F007018160704730B5026A22F00102A2
:101610000262026A4368846924F073050C682C43F3
:1016200022F002058A682A430A4DA8420BD122F013
:101630000805CA6823F440732A434D6922F0040266
:101640001D438B692B434360846149684163026297
:1016500030BD0000002C014030B5026A22F01002BB
:101660000262026A436884690D6824F4E64444EA2D
:1016700005248D6822F0200242EA05120B4DA84293
:101680000ED1CD6822F0800242EA05124D6923F4A2
:10169000406343EA85038D6922F0400243EA8503F3
:1016A0004360846149688163026230BD002C01405F
:1016B00030B5026A22F480720262036A4268C46929
:1016C00023F4007324F073050C682C438D6843EAFF
:1016D00005230C4DA8420ED1CD6823F4006343EAE4
:1016E00005234D6922F4405242EA05128D6923F424
:1016F000806342EA05124260C4614968C1630362C3
:1017000030BD0000002C014030B5026A22F4805246
:101710000262046A4268C3690D6823F4E64343EA3F
:1017200005238D6824F4005444EA0534064DA8428C
:1017300004D14D6922F4804242EA85124260C361BD
:1017400049680164046230BD002C014010B5036A91
:10175000046A24F001040462846924F0F00444EA79
:10176000021423F00A020A438461026210BD10B51C
:10177000036A23F0100303628369046A23F470434D
:1017800043EA023224F0A00343EA011182610162BC
:1017900010BD10B5406A0021C185C184FFF7BDFBB3
:1017A00010BD0168CA6822F49072CA6001684A6973
:1017B00022F001024A61202180F83A10704710B5EA
:1017C00090F83A10222901D0022010BD82684FF40F
:1017D00080539A4201D1016921B1816A9A421BD09A
:1017E0004AB10AE00268816A5268C2F308020A80BC
:1017F000816A891C08E0026972B10268526802F0CD
:101800007F020A70816A491C8162C18D491E0904E8
:10181000090CC18503D016E002685268F1E701683F
:10182000CA6822F02002CA600168CA6822F4807285
:10183000CA6001684A6922F001024A61202180F8E9
:101840003A10FFF7C3FC002010BD000070B504463D
:1018500000680169E26821F4405111430161216986
:10186000A0680843616908432168CA6841F20C63B3
:101870009A430243CA6020684169A26921F4407119
:10188000114341611E492068884202D1FEF7FAFEE9
:1018900001E0FEF7E7FE00EBC00101EB001260681B
:1018A00064218000B2FBF0F3B3FBF1F36FF0180694
:1018B0007343B2FBF0F5B2FBF0F605EB8305322380
:1018C00003EB0515B5FBF1F5B6FBF1F605F0F005F8
:1018D00005EB0615B2FBF0F6B2FBF0F0B0FBF1F051
:1018E0006FF01802504306EB800003EB0010B0FBD2
:1018F000F1F0216800F00F002844886070BD0000FE
:10190000003801400148FFF709BB0000300100200A
:101910000148FFF703BB000070010020FEE7090744
:10192000090E002804DB00F1E02080F80014704765
:1019300000F00F0000F1E02080F8141D704702E075
:1019400008C8121F08C1002AFAD17047704700204A
:1019500001E001C1121F002AFBD17047FEF75CFDB8
:10196000FFF7DAFDFFF736FCFFF7F6FCFFF72AFD7D
:10197000FFF75EFDFFF784FCFFF790FDFFF7AAFD80
:10198000FEE700000000000000000102030406075B
:10199000080900000000010203040000BC1900084F
:1019A00000000020100000003E190008CC190008BB
:1019B00010000020A00500004E19000801000000E2
:0C19C00010000000000000000024F400F3
:04000005080000ED02
:00000001FF
